{
    "abi": [
        {
            "type": "constructor",
            "inputs": [
                {
                    "name": "_stakeAmount",
                    "type": "uint256",
                    "internalType": "uint256"
                }
            ],
            "stateMutability": "payable"
        },
        {
            "type": "fallback",
            "stateMutability": "payable"
        },
        {
            "type": "receive",
            "stateMutability": "payable"
        },
        {
            "type": "function",
            "name": "agent",
            "inputs": [],
            "outputs": [
                {
                    "name": "",
                    "type": "address",
                    "internalType": "address"
                }
            ],
            "stateMutability": "view"
        },
        {
            "type": "function",
            "name": "endGame",
            "inputs": [
                {
                    "name": "_player",
                    "type": "address",
                    "internalType": "address"
                }
            ],
            "outputs": [],
            "stateMutability": "nonpayable"
        },
        {
            "type": "function",
            "name": "gameActive",
            "inputs": [],
            "outputs": [
                {
                    "name": "",
                    "type": "bool",
                    "internalType": "bool"
                }
            ],
            "stateMutability": "view"
        },
        {
            "type": "function",
            "name": "getPrizePool",
            "inputs": [],
            "outputs": [
                {
                    "name": "",
                    "type": "uint256",
                    "internalType": "uint256"
                }
            ],
            "stateMutability": "view"
        },
        {
            "type": "function",
            "name": "owner",
            "inputs": [],
            "outputs": [
                {
                    "name": "",
                    "type": "address",
                    "internalType": "address"
                }
            ],
            "stateMutability": "view"
        },
        {
            "type": "function",
            "name": "playerInfo",
            "inputs": [
                {
                    "name": "",
                    "type": "address",
                    "internalType": "address"
                }
            ],
            "outputs": [
                {
                    "name": "answerHash",
                    "type": "bytes32",
                    "internalType": "bytes32"
                },
                {
                    "name": "startTime",
                    "type": "uint256",
                    "internalType": "uint256"
                },
                {
                    "name": "isPlaying",
                    "type": "bool",
                    "internalType": "bool"
                }
            ],
            "stateMutability": "view"
        },
        {
            "type": "function",
            "name": "setAgent",
            "inputs": [
                {
                    "name": "_agent",
                    "type": "address",
                    "internalType": "address"
                }
            ],
            "outputs": [],
            "stateMutability": "nonpayable"
        },
        {
            "type": "function",
            "name": "setGameActive",
            "inputs": [
                {
                    "name": "_active",
                    "type": "bool",
                    "internalType": "bool"
                }
            ],
            "outputs": [],
            "stateMutability": "nonpayable"
        },
        {
            "type": "function",
            "name": "setRiddle",
            "inputs": [
                {
                    "name": "_player",
                    "type": "address",
                    "internalType": "address"
                },
                {
                    "name": "_answerHash",
                    "type": "bytes32",
                    "internalType": "bytes32"
                }
            ],
            "outputs": [],
            "stateMutability": "nonpayable"
        },
        {
            "type": "function",
            "name": "stakeAmount",
            "inputs": [],
            "outputs": [
                {
                    "name": "",
                    "type": "uint256",
                    "internalType": "uint256"
                }
            ],
            "stateMutability": "view"
        },
        {
            "type": "function",
            "name": "startGame",
            "inputs": [],
            "outputs": [],
            "stateMutability": "payable"
        },
        {
            "type": "function",
            "name": "submitAnswer",
            "inputs": [
                {
                    "name": "_answer",
                    "type": "string",
                    "internalType": "string"
                }
            ],
            "outputs": [],
            "stateMutability": "nonpayable"
        },
        {
            "type": "event",
            "name": "GameEnded",
            "inputs": [
                {
                    "name": "player",
                    "type": "address",
                    "indexed": true,
                    "internalType": "address"
                },
                {
                    "name": "playerWon",
                    "type": "bool",
                    "indexed": false,
                    "internalType": "bool"
                },
                {
                    "name": "prizeAmount",
                    "type": "uint256",
                    "indexed": false,
                    "internalType": "uint256"
                }
            ],
            "anonymous": false
        },
        {
            "type": "event",
            "name": "GameStarted",
            "inputs": [
                {
                    "name": "player",
                    "type": "address",
                    "indexed": true,
                    "internalType": "address"
                }
            ],
            "anonymous": false
        },
        {
            "type": "event",
            "name": "RiddleSet",
            "inputs": [
                {
                    "name": "player",
                    "type": "address",
                    "indexed": true,
                    "internalType": "address"
                },
                {
                    "name": "answerHash",
                    "type": "bytes32",
                    "indexed": false,
                    "internalType": "bytes32"
                }
            ],
            "anonymous": false
        }
    ],
    "bytecode": {
        "object": "0x6080604052604051610c89380380610c898339810160408190526020916046565b600080546001600160a01b031916331790556002556003805460ff19166001179055605e565b600060208284031215605757600080fd5b5051919050565b610c1c8061006d6000396000f3fe6080604052600436106100a55760003560e01c8063bb3e315911610061578063bb3e3159146101be578063bcf685ed146101de578063ccc08974146101fe578063d65ab5f21461021e578063f020044f14610226578063f5ff5c761461025057005b80632a035b6c146100ae5780634b114691146100ce57806358f44bf41461012f57806360c7dc471461014f578063884bf67c146101735780638da5cb5b1461018657005b366100ac57005b005b3480156100ba57600080fd5b506100ac6100c9366004610983565b610270565b3480156100da57600080fd5b5061010d6100e9366004610983565b60046020526000908152604090208054600182015460029092015490919060ff1683565b6040805193845260208401929092521515908201526060015b60405180910390f35b34801561013b57600080fd5b506100ac61014a3660046109a5565b6103a4565b34801561015b57600080fd5b5061016560025481565b604051908152602001610126565b34801561017f57600080fd5b5047610165565b34801561019257600080fd5b506000546101a6906001600160a01b031681565b6040516001600160a01b039091168152602001610126565b3480156101ca57600080fd5b506100ac6101d93660046109e5565b6104f6565b3480156101ea57600080fd5b506100ac6101f9366004610983565b61079a565b34801561020a57600080fd5b506100ac610219366004610a9e565b6107e6565b6100ac610823565b34801561023257600080fd5b506003546102409060ff1681565b6040519015158152602001610126565b34801561025c57600080fd5b506001546101a6906001600160a01b031681565b6001546001600160a01b031633146102a35760405162461bcd60e51b815260040161029a90610ac0565b60405180910390fd5b60035460ff166102c55760405162461bcd60e51b815260040161029a90610b01565b6001600160a01b0381166000908152600460205260409020600281015460ff1661032b5760405162461bcd60e51b8152602060048201526017602482015276506c61796572206973206e6f7420696e20612067616d6560481b604482015260640161029a565b6002818101805460ff199081169091556001600160a01b0384166000818152600460209081526040808320838155600181018490559095018054909416909355835181815292830152917f9484b73337c50c203cfa2332d7c26aba585df546b51be72822aa30eaae6eb60a910160405180910390a25050565b6001546001600160a01b031633146103ce5760405162461bcd60e51b815260040161029a90610ac0565b60035460ff166103f05760405162461bcd60e51b815260040161029a90610b01565b6001600160a01b0382166000908152600460205260409020600281015460ff166104565760405162461bcd60e51b8152602060048201526017602482015276506c61796572206973206e6f7420696e20612067616d6560481b604482015260640161029a565b8054156104b05760405162461bcd60e51b815260206004820152602260248201527f526964646c6520616c72656164792073657420666f72207468697320706c617960448201526132b960f11b606482015260840161029a565b8181556040518281526001600160a01b038416907fe8963883ded018988e06c969a6447e1a069cbed340e55b5adca307886565a2f29060200160405180910390a2505050565b60035460ff166105185760405162461bcd60e51b815260040161029a90610b01565b336000908152600460205260409020600281015460ff166105735760405162461bcd60e51b8152602060048201526015602482015274596f7520617265206e6f7420696e20612067616d6560581b604482015260640161029a565b80546105b65760405162461bcd60e51b8152602060048201526012602482015271149a59191b19481b9bdd081cd95d081e595d60721b604482015260640161029a565b60018101546105c79061012c610b2d565b42111561060c5760405162461bcd60e51b8152602060048201526013602482015272151a5b59481b1a5b5a5d08195e18d959591959606a1b604482015260640161029a565b60008260405160200161061f9190610b54565b60408051601f19818403018152918152815160209283012084546002808701805460ff199081169091553360009081526004909652938520858155600181019590955593909301805490921690915591508114801561075857476000610686600283610b83565b604051909150600090339083908381818185875af1925050503d80600081146106cb576040519150601f19603f3d011682016040523d82523d6000602084013e6106d0565b606091505b50509050806107145760405162461bcd60e51b815260206004820152601060248201526f2a3930b739b332b9103330b4b632b21760811b604482015260640161029a565b60408051600181526020810184905233917f9484b73337c50c203cfa2332d7c26aba585df546b51be72822aa30eaae6eb60a910160405180910390a2505050610794565b604080516000808252602082015233917f9484b73337c50c203cfa2332d7c26aba585df546b51be72822aa30eaae6eb60a910160405180910390a25b50505050565b6000546001600160a01b031633146107c45760405162461bcd60e51b815260040161029a90610ba5565b600180546001600160a01b0319166001600160a01b0392909216919091179055565b6000546001600160a01b031633146108105760405162461bcd60e51b815260040161029a90610ba5565b6003805460ff1916911515919091179055565b60035460ff166108455760405162461bcd60e51b815260040161029a90610b01565b60025434101561088e5760405162461bcd60e51b8152602060048201526014602482015273125b9d985b1a59081cdd185ad948185b5bdd5b9d60621b604482015260640161029a565b3360009081526004602052604090206002015460ff16156108f15760405162461bcd60e51b815260206004820152601960248201527f596f752061726520616c726561647920696e20612067616d6500000000000000604482015260640161029a565b60408051606081018252600080825242602080840191825260018486018181523380865260049093528685209551865592519085015590516002909301805460ff191693151593909317909255915190917f67cf7f1535e1c1323fe4e76266f7d55f0c1f67fdf449db65e014f9d35881514d91a2565b80356001600160a01b038116811461097e57600080fd5b919050565b60006020828403121561099557600080fd5b61099e82610967565b9392505050565b600080604083850312156109b857600080fd5b6109c183610967565b946020939093013593505050565b634e487b7160e01b600052604160045260246000fd5b6000602082840312156109f757600080fd5b813567ffffffffffffffff811115610a0e57600080fd5b8201601f81018413610a1f57600080fd5b803567ffffffffffffffff811115610a3957610a396109cf565b604051601f8201601f19908116603f0116810167ffffffffffffffff81118282101715610a6857610a686109cf565b604052818152828201602001861015610a8057600080fd5b81602084016020830137600091810160200191909152949350505050565b600060208284031215610ab057600080fd5b8135801515811461099e57600080fd5b60208082526021908201527f4f6e6c79206167656e742063616e2063616c6c20746869732066756e6374696f6040820152603760f91b606082015260800190565b60208082526012908201527147616d65206973206e6f742061637469766560701b604082015260600190565b80820180821115610b4e57634e487b7160e01b600052601160045260246000fd5b92915050565b6000825160005b81811015610b755760208186018101518583015201610b5b565b506000920191825250919050565b600082610ba057634e487b7160e01b600052601260045260246000fd5b500490565b60208082526021908201527f4f6e6c79206f776e65722063616e2063616c6c20746869732066756e6374696f6040820152603760f91b60608201526080019056fea2646970667358221220d9fd2b0e1ade5cc12d6c112e37dbc9238c50feb0bea16a29c699223a8454cbab64736f6c634300081a0033",
        "linkReferences": {}
    },
    "methodIdentifiers": {
        "agent()": "f5ff5c76",
        "endGame(address)": "2a035b6c",
        "gameActive()": "f020044f",
        "getPrizePool()": "884bf67c",
        "owner()": "8da5cb5b",
        "playerInfo(address)": "4b114691",
        "setAgent(address)": "bcf685ed",
        "setGameActive(bool)": "ccc08974",
        "setRiddle(address,bytes32)": "58f44bf4",
        "stakeAmount()": "60c7dc47",
        "startGame()": "d65ab5f2",
        "submitAnswer(string)": "bb3e3159"
    },
    "id": 20
}